:020000040000FA
:1000000088311628FF3FFF3F70082000A7007108C5
:10001000A6007208A5007308A4007408A3007C0859
:10002000A2007D08A1008031911D662B9111240052
:10003000151F1F2811082000BD00240015132000E3
:10004000BE012D30240014052000BE0009303E06FC
:10005000F1007108003A031D30280130C70057280D
:1000600029303E06F1007108003A031D3A2802309B
:10007000C70057280D303E06F1007108003A031DF5
:1000800044280330C700572824303E06F100710889
:10009000003A031D4E280430C700572828303E067A
:1000A000F1007108003A031D57280530C700562B90
:1000B000240011082000BD003D08543A031D6928A2
:1000C0000630FC003030FD00FD0B6428FC0B64287A
:1000D00000002400151620009111632B2400110844
:1000E0002000BD003D082D3A031D8228240015166E
:1000F00020009111A901C501C601C301C40101304D
:10010000A8000F2B3D082E3A031D92282400151637
:1001100020009111D501D601E101E201A9010230CF
:10012000A8000F2B3D082F3A031DA0282400151608
:1001300020009111E301E401A9010330A8000F2B75
:100140003D08403A031DA7280130B4000F2B3D089D
:10015000413A031DAE28B201B4010F2B3D08303ADD
:10016000031DB7280130B30010308E060F2B3D0859
:10017000313A031DBF28B3010E16A8010F2B3D080D
:10018000323A031DC728B3010E12A8010F2B3D08F8
:10019000333A031DD2282400151620009111073090
:1001A000A8000F2B3D08343A031DDD282400151646
:1001B000200091110830A8000F2B3D08353A031D8F
:1001C000E82824001516200091110930A8000F2BF3
:1001D0003D08363A031D3C290B302300A700932726
:1001E00070082000B8007108B9000330F00037082B
:1001F000BA00BB01700803190129BA35BB0DFF3ED7
:10020000FB280430F2003208F000F10172080319F3
:100210000D29F035F10DFF3E07297008BA04710869
:10022000BB040530F2003508F000F1017208031933
:100230001D29F035F10DFF3E17297008BA04710829
:10024000BB040630F2003608F000F1017208031911
:100250002D29F035F10DFF3E27297008BA047108E9
:10026000BB04F0010E18F00A7008BA040030BB0499
:10027000B6010A30A8000F2B3D08373A031D432969
:100280000B30A8000F2B3D08383A031D4C290E18DF
:100290004A298E12A8010F2B3D08393A031D542913
:1002A00082272000A8010F2B2808013A031DA52949
:1002B0002908003A031D6629240015162000911113
:1002C0003D08C500C6010130A900A4292400151667
:1002D000200091114508F100F0013D087004F30081
:1002E0007108F4000030F4047308C5007408C600F7
:1002F0004308F0004408F100F035F10DA03070071C
:1003000086000030713D8700730881007408413118
:10031000810001302A02F10000302B3BF20044083A
:100320007206031D952971084306031D9E292400AA
:10033000151620009111A801C301C401A901C5012E
:10034000C601C30A0319C40A0F2B2808023A031D69
:10035000F2292908003A031DB729240015162000A8
:1003600091113D08D500D6010130A900F1295508A9
:10037000F100F0013D087004F3007108F400003052
:10038000F4047308D5007408D6006108F000620810
:10039000F100F035F10D2030700786000130713D1D
:1003A00087007308810074084131810001302A02FE
:1003B000F10000302B3BF20062087206031DE229B7
:1003C00071086106031DEB29240015162000911108
:1003D000A801E101E201A901D501D601E10A031951
:1003E000E20A0F2B2808033A031D4B2A2908003A7A
:1003F000031D042A24001516200091113D08E30076
:10040000E4010130A9004A2A6308F100F0013D0827
:100410007004F2007108F3000030F3047208E30086
:100420007308E40000307306031D182A01307206B9
:10043000031D222A2400151620009111A801013065
:10044000BC00472A00306406031D282A03306306D7
:10045000031D322A2400151620009111A801033033
:10046000BC00472A00306406031D382A02306306A8
:10047000031D422A2400151620009111A801023004
:10048000BC00472A2400151620009111A801A901DB
:10049000E301E4010F2B2808073A031D772A2908F6
:1004A000003A031D5D2A24001516200091113D0815
:1004B000D900DA010130A900762A2400151620009F
:1004C00091115908F100F0013D08F0040030F104E9
:1004D0007008D9007108DA007008AA007108AB0032
:1004E000A801A901D901DA01240091010F2B2000F4
:1004F0002808083A031DD82A2908003A031D8A2A29
:1005000024001516200091113D08DB00DC010130AC
:10051000A900D72A24001516200091115B08F100CC
:10052000F0013D087004F2007108F3000030F3049C
:100530007208DB007308DC0000307306031DA22A7A
:1005400001307206031DAC2A0C148C102400151601
:1005500020009111A801D12A00305C06031DB22AA7
:1005600002305B06031DBC2A0C108C1424001516E7
:1005700020009111A801D12A00305C06031DC22A77
:1005800003305B06031DCC2A0C108C1024001516BA
:1005900020009111A801D12A2400151620009111E4
:1005A000A801A801A901D901DA01240091010F2BAA
:1005B00020002808093A031D052B2908003A031DCD
:1005C000EB2A24001516200091113D08D700D80110
:1005D0000130A900042B24001516200091115708A2
:1005E000F100F0013D08F0040030F1047008D7007C
:1005F0007108D8007008D0007108D100A801A901C5
:10060000D701D801240091010F2B240014101516D6
:100610002000E101E201C301C401A901A8012400F5
:1006200014101516632B200028080A3A031D452BC9
:100630002C08003A031D202B380824009100342B8D
:1006400020002C08013A031D2C2B3908F000F10181
:10065000700824009100342B20002C08023A031D5E
:10066000342B3A0824009100240015162000911123
:100670002400141C3C2B382B2000AC0A03302C0225
:10068000031C442BAC01A801502B28080B3A031D76
:10069000502B073024009100151620009111A8015D
:1006A000632B240015162000C701632B4708013A6D
:1006B000031958284708023A03196E284708033AD5
:1006C0000319132B512B24001516E32B2000111CAA
:1006D0009A2B11102D0AF0007008AD002D08183A61
:1006E000031D752BAD010130B00007302D05F00062
:1006F000031D8F2B00308E190130B10031082F06F9
:100700000319872B0130B5000130B6008D2B350859
:10071000031D8C2B3108B700B5013108AF00330839
:100720000319992B03302D05F000031D992B103070
:100730008E06E32B2700131DDF2B20003408B200A8
:100740002700131120002E080319CB2B0C30230097
:10075000A7000030A8000230A9000230AA00013032
:10076000AB009A2770080319CB2B2000300803191F
:10077000C42B3418BD2B8E12BE2B8E16B00134083C
:10078000031DC32B0E16CA2B8E1ACA2B8E160E12E1
:100790000430BC00AE010C302300A7000030A800DC
:1007A0000230A9000230AA00AB019A277008031991
:1007B000DE2B01302000AE00B001AD01E32B2000A4
:1007C000111FE32B111320002708F0002608F10069
:1007D0002508F2002408F3002308F4002208FC0096
:1007E0002108FD00090020002230FC00F801F90179
:1007F000FA01FB01FC030319282C0310FB0CFA0C73
:10080000F90CF80CF30CF20CF10CF00C031CFA2BA5
:10081000FC0303191A2C7408F80775080318750FE0
:10082000F90776080318760FFA0777080318770F89
:10083000FB07FE2B7408F80775080318750FF907F6
:1008400076080318760FFA0777080318770FFB0767
:1008500008002300A603A6032608003C0318352C35
:10086000A6030000000000002C2C00000000000087
:100870000000000008001D30FD00FD0B3D2C0800AD
:100880002000FB01FA01F901F801A001730DF80D38
:100890007408F8027508031C750FF9027608031C2A
:1008A000760FFA027708031C770FFB020001031C86
:1008B0000130A002F30D0730FC00730DF80DF90DA7
:1008C000FA0DFB0DA00D7408731C782CF802750846
:1008D000031C750FF9027608031C760FFA027708DD
:1008E000031C770FFB020001031C0130A002892CBE
:1008F000F80775080318750FF90776080318760FBF
:10090000FA0777080318770FFB0700010318013077
:10091000A007F30DFC0B5D2C720DF80DF90DFA0D0F
:10092000FB0DA00D7408731CA72CF8027508031C9E
:10093000750FF9027608031C760FFA027708031C7C
:10094000770FFB020001031C0130A002B82CF8074E
:1009500075080318750FF90776080318760FFA075C
:1009600077080318770FFB07000103180130A00771
:10097000F20D0730FC00720DF80DF90DFA0DFB0DAC
:10098000A00D7408721CD62CF8027508031C750F94
:10099000F9027608031C760FFA027708031C770F1A
:1009A000FB020001031C0130A002E72CF8077508C8
:1009B0000318750FF90776080318760FFA077708FA
:1009C0000318770FFB07000103180130A007F20D91
:1009D000FC0BBB2C710DF80DF90DFA0DFB0DA00DE4
:1009E0007408721C052DF8027508031C750FF902B6
:1009F0007608031C760FFA027708031C770FFB02B8
:100A00000001031C0130A002162DF8077508031819
:100A1000750FF90776080318760FFA077708031899
:100A2000770FFB07000103180130A007F10D073015
:100A3000FC00710DF80DF90DFA0DFB0DA00D7408F9
:100A4000711C342DF8027508031C750FF902760825
:100A5000031C760FFA027708031C770FFB020001D4
:100A6000031C0130A002452DF80775080318750F07
:100A7000F90776080318760FFA0777080318770F37
:100A8000FB07000103180130A007F10DFC0B192D25
:100A9000700DF80DF90DFA0DFB0DA00D7408711C09
:100AA000632DF8027508031C750FF9027608031C04
:100AB000760FFA027708031C770FFB020001031C74
:100AC0000130A002742DF80775080318750FF90797
:100AD00076080318760FFA0777080318770FFB07D5
:100AE000000103180130A007F00D0730FC00700D65
:100AF000F80DF90DFA0DFB0DA00D7408701C922D68
:100B0000F8027508031C750FF9027608031C760FAE
:100B1000FA027708031C770FFB020001031C013067
:100B2000A002A32DF80775080318750FF9077608BA
:100B30000318760FFA0777080318770FFB070001F1
:100B400003180130A007F00DFC0B772D7018B62D9F
:100B50007408F80775080318750FF9077608031865
:100B6000760FFA0777080318770FFB0708002000B5
:100B7000F801F9011030FC00710DF80DF90D740841
:100B8000F8027508031C750FF9020318CE2D7408BE
:100B9000F80775080318750FF9070310F00DF10D2C
:100BA000FC0BBC2D08008030F0003E30F100F2015B
:100BB000F3010800833021009D0523002E08F0007A
:100BC000F035F035700821009D043B249D149D1CD8
:100BD000EA2DE72D1C08F100F0011B08F00400309D
:100BE000F1040800DA302000DD000530DE00AE3010
:100BF000DF000130E000F03021009E009D011D1457
:100C00000800D325E830F4000330F500F601F701C1
:100C1000F32370082300A2007108A3007208A40047
:100C20007308A50020006A08F4006B08F500F601BF
:100C3000F701402470082300A2007108A300720885
:100C4000A4007308A5007008F5007108F60072088A
:100C5000F7007308F800F836F70CF60CF50CF836C8
:100C6000F70CF60CF50C7508F0007608F100770823
:100C7000F2007808F300F336F20CF10CF00C700877
:100C80002000EE007108EF00D3256C08F4006D0819
:100C9000F500F601F701F3236E08F9006F08FA007A
:100CA000FB01FC010330F8007908F4007A08F50034
:100CB0007B08F6007C08F70078080319652EF435E8
:100CC000F50DF60DF70DFF3E5D2E40247008230054
:100CD000A2007108A3007208A4007308A5000A30DE
:100CE000F4000030F50020006E08F0006F08F100FD
:100CF000B7257008EE007108EF0000307102031D87
:100D0000832E033070020318862EE12E40088400E3
:100D10004108850023002508003C031D992E240866
:100D2000003C031D992E2308003C031D992E220828
:100D3000003C0318DE2E2000420880046F080319CF
:100D4000B42E2300A001A10100302102031DAC2E0E
:100D500020006F08230020020318B42EA6012924C6
:100D6000A00A0319A10AA42E20006E082300A600E1
:100D7000292420003F0880056F080319D22E230084
:100D8000A001A10100302102031DCA2E20006F081E
:100D9000230020020318D22EA6012924A00A031939
:100DA000A10AC22E20006E082300A60029240130CB
:100DB000A2020030A33BA43BA53B8A2E20003F08A3
:100DC000800508000330FC009530FD00FD0BE62E89
:100DD000FC0BE62E0800AC302000EA000D30EB00E2
:100DE0006430EC000030ED0001260230FB000430DE
:100DF000FC00BA30FD00FD0BFB2EFC0BFB2EFB0BA9
:100E0000FB2E0000AC30EA000D30EB006430EC004B
:100E10000030ED0001260230FB000430FC00BA3047
:100E2000FD00FD0B112FFC0B112FFB0B112F0000F0
:100E3000AC30EA000D30EB006430EC000030ED0027
:100E400001263430FC00F130FD00FD0B252FFC0B9A
:100E5000252F000000000800F101F20120006808C1
:100E60007202031D352F670871020318442F0630E4
:100E7000FC003030FD00FD0B3B2FFC0B3B2F000036
:100E8000F10A0319F20A2E2F08002000FB01FA01D3
:100E9000F9018030F800F10CF00C031C582F740895
:100EA000F90775080318750FFA070318FB0A0310F2
:100EB000F01F602F7408FA0775080318750FFB07F9
:100EC000FB0CFA0CF90CF80C031C4B2F7B08F300FD
:100ED0007A08F2007908F1007808F0000800200094
:100EE0009701960111102100111434302000980050
:100EF000181408008B170B178B15270012151115E6
:100F000013110800FE3024009300363095000130A4
:100F10009600970194015430920020009111210015
:100F200091150B170800F22523002708AE00DA25DB
:100F30001D1008002300AD012908F1000130F00068
:100F400071080319A62FF035FF3EA12F7008AC00E1
:100F5000270884002808850070080005F100710842
:100F60000130031D0030F0002B08F0060319D22FCA
:100F70002A08003C0318C02FE226E226AA03B82F55
:100F800027088400280885002C080005F100710856
:100F90000130031D0030F0002B08F0060319D22F9A
:100FA000FF30AD002D08F000080020006708C000E9
:100FB0006808C1006908F1000130F00071080319E8
:100FC000E42FF035FF3EDF2F7008C200F0097008F3
:100FD000BF008030670784000030683D85007008DE
:100FE00080058030840270088005080000340034D9
:100FF000FF3FFF3FFF3FFF3FFF3FFF3FFF3FFF3F01
:1010000023008C018E0120308D00703021008D0076
:1010100009308E000C308C00080012001E00F00316
:10102000031D0D28F103031D0D2808003223023093
:101030002000BC00002020008E120E167A30210005
:1010400099000330FB000830FC007730FD00FD0BF9
:101050002728FC0B2728FB0B27280E302000E70051
:101060000030E8000230E9008031D5278831803136
:101070008227883180317A27883180316F27883103
:101080000C148C10692A003021002106031D4A2807
:1010900000302006031DA22800302306031D52281D
:1010A00000302206031DA22800302506031D5A2801
:1010B00002302406031DA22800302706031D6228E3
:1010C00001302606031DA2282908033A031D6A28B9
:1010D000E8302806031DA2282B08073A031D7228B2
:1010E000D0302A06031DA228D8302000CE000E30B2
:1010F000CF00CC30CC001030CD00CC30C800103048
:10110000C9000230CA000030CB00D830D2000E3007
:10111000D30053084902031D8F2852084802031CBC
:10112000A1285208EA005308EB000130EC0000301F
:10113000ED008031012688314A08D2074B08D33DA3
:101140008928F629003021002106031DA928003036
:101150002006031D2C2900302306031DB128003072
:101160002206031D2C2900302506031DB928013055
:101170002406031D2C2928082000CE002100290860
:101180002000CF0021002A082000CC0021002B08DD
:101190002000CD0021002608F0002708F100E830EB
:1011A000F4000330F5008031452788317008E500F0
:1011B0007108E6006508C8006608C9002100280813
:1011C0002A02F00029082B3BF10020006508F400FA
:1011D0006608F5008031B72588317008CA007108AB
:1011E000CB00D201D30153084902031DF92852084C
:1011F0004802031C0E294E08EA004F08EB0001309C
:10120000EC000030ED008031012688314A08CE071D
:101210004B08CF3DD20A0319D30AF328D201D301D8
:1012200053084902031D162952084802031C2B29A2
:101230004C08EA004D08EB000130EC000030ED00F6
:101240008031012688314A08CC024B08CD3BD20AB6
:101250000319D30A1029F629003021002106031DA5
:10126000332900302006031D992900302306031D71
:101270003B2900302206031D992900302506031D55
:10128000432902302406031D992928082000CE0096
:10129000210029082000CF0021002A082000CC00CE
:1012A00021002B082000CD0021002608F00027088F
:1012B000F100E830F4000330F50080314527883133
:1012C0007008E5007108E6006508C8006608C900F6
:1012D000210028082A02F00029082B3BF1002000F9
:1012E0006508F4006608F5008031B725883170087C
:1012F000CA007108CB00D201D30153084902031D73
:10130000832952084802031C98294E08EA004F0816
:10131000EB000130EC000030ED0080310126883117
:101320004A08CE074B08CF3DD20A0319D30A7D29BC
:10133000F6292000D4018030F00080302B067002A6
:10134000031DA4292A0854020318F6295408F000A2
:10135000F101F035F10DA030700784000030713DCF
:1013600085000008F00001310008F10070087104E8
:101370000319DE295408F000F101F035F10DA03019
:10138000700784000030713D85000008EA000131DB
:101390000008EB005408F000F101F035F10D2030A9
:1013A000700784000130713D85000008EC000131B8
:1013B0000008ED00803101268831F1295408F00041
:1013C000F101F035F10D2030700784000130713DDE
:1013D00085000008E70001310008E80080312C2773
:1013E0008831540AF0007008D4009B29792AD4016E
:1013F0008030F00080302B067002031D012A2A087D
:1014000054020318532A5408F000F101F035F10D8D
:10141000A030700784000030713D85000008F000A6
:1014200001310008F1007008710403193B2A5408C7
:10143000F000F101F035F10DA030700784000030AC
:10144000713D85000008EA0001310008EB005408F6
:10145000F000F101F035F10D20307007840001300B
:10146000713D85000008EC0001310008ED0080317D
:10147000012688314E2A5408F000F101F035F10DB3
:101480002030700784000130713D85000008E700BE
:1014900001310008E80080312C278831540AF0001F
:1014A0007008D400F8290130D0020030D13B003060
:1014B0005106031D5D2A00305006031D612A0230CB
:1014C000BC00792A792A8031EB2688310230BC00B1
:1014D000792A3C08013A031943283C08033A0319C6
:1014E000F7293C08023A0319622A3C08043A031916
:1014F000632A42287A2AFF3FFF3FFF3F2634053404
:10150000DC34043426340534B734073496340434D8
:1015100016340434E034063400340034003400342B
:10152000003400340034003400340034003400341B
:10153000003400340034003400340034003400340B
:1015400000340034003400340034003400340034FB
:1015500000340034003400340034003400340034EB
:1015600000340034003400340034003400340034DB
:1015700000340034003400340034003400340034CB
:1015800000340034003400340034003400340034BB
:10159000003400340034003400340034F0340034BB
:1015A000F0340034F0340034F0340034F0340034DB
:1015B000F0340034E0340134DC34053400340034D9
:1015C000003400340034003400340034003400347B
:1015D000003400340034003400340034003400346B
:1015E000003400340034003400340034003400345B
:1015F000003400340034003400340034003400344B
:10160000003400340034003400340034003400343A
:10161000003400340034003400340034003400342A
:10162000003400340034003400340034003400341A
:101630000034003400340034003400340834003402
:1016400000340034003400340034003400340034FA
:1016500000340034003400340034003400340034EA
:101660000034FF3FF6308400873085000230F00000
:101670000130F10028308600003087000D207E30D8
:1016800084008A3085005030F0000130F100A03035
:101690008600003087000D20CE3084008A3085001F
:1016A0005030F0000130F10020308600013087001A
:1016B0000D201E3084008B3085001330F000013087
:1016C000F1002A308600003087000D200800FF3F1F
:1016D000FF3FFF3FFF3FFF3FFF3FFF3FFF3FFF3F1A
:1016E000FF3FFF3FFF3FFF3FFF3FFF3FFF3FFF3F0A
:1016F000FF3FFF3FFF3FFF3FFF3FFF3FFF3FFF3FFA
:10170000FF3FFF3FFF3FFF3FFF3FFF3FFF3FFF3FE9
:020000040001F9
:04000E00E409FF13EF
:08000000FF3FFF3FFF3FFF3F00
:00000001FF
